:1000000071C000008EC000008CC000008AC00000DB
:1000100088C0000086C0000084C0000082C00000CC
:1000200080C000007EC000007CC000007AC00000DC
:1000300078C0000076C0000074C0000072C00000EC
:1000400070C000006EC000006CC000006AC00000FC
:1000500068C0000066C0000064C0000062C000000C
:1000600060C000005EC000005CC000005AC000001C
:1000700058C0000056C0000054C0000052C000002C
:1000800050C000004EC000004CC000004AC000003C
:1000900048C0000046C0000044C0000042C000004C
:1000A00040C000003EC000003CC000003AC000005C
:1000B00038C0000036C0000034C0000032C000006C
:1000C00030C000002EC000002CC000002AC000007C
:1000D00028C0000026C0000024C0000022C000008C
:1000E00020C0000011241FBECFEFD1E2DEBFCDBF84
:1000F00000E00CBF12E0A0E0B2E0E6E3F6E000E0D2
:100100000BBF02C007900D92A639B107D9F722E0C4
:10011000A6E9B2E001C01D92A839B207E1F75DD2AD
:1001200088C26ECF982F907F92B992B19E7F92B97C
:1001300092B19D7F92B992B1946092B9EFE3FCE9DC
:100140003197F1F700C0000092B19B7F92B9EFE3C5
:10015000FCE93197F1F700C00000F0E18F9FC0018A
:10016000112482B982B18E7F82B982B18D7F82B92A
:1001700082B1846082B98FE39CE90197F1F700C0F6
:10018000000082B18B7F82B9EFE3FCE93197F1F790
:1001900000C000000895982F907F92B992B19160AD
:1001A00092B992B19D7F92B992B1946092B9EFE306
:1001B000FCE93197F1F700C0000092B19B7F92B942
:1001C000EFE3FCE93197F1F700C00000F0E18F9F09
:1001D000C001112482B982B1816082B982B18D7F60
:1001E00082B982B1846082B98FE39CE90197F1F70B
:1001F00000C0000082B18B7F82B9EFE3FCE9319748
:10020000F1F700C00000089582E08CDF88E28ADF09
:100210008EE088DF81E086DF80E884CF08950F9349
:100220001F93CF93DF938C01C0E0D0E002C0B3DF17
:100230002196F801EC0FFD1F80818111F8CFDF912D
:10024000CF911F910F9108958FE788B9339B20C0FC
:10025000329B20C0319B20C08FEB88B9339B1EC0DE
:10026000329B1EC0319B1EC08FED88B9339B1CC0D2
:10027000329B1CC0319B1CC08FEE88B9339B1AC0C7
:10028000329B1AC0319B1AC030991AC084E4089579
:1002900081E3089582E3089583E3089584E3089554
:1002A00085E3089586E3089587E3089588E3089534
:1002B00089E308958AE2089580E3089583E208952A
:1002C00081E6089581E601C0BFDF8136E9F3089534
:1002D000CF93DF93C0E0D0E016C0F4DF80939702A5
:1002E0002FEF83ED90E3215080409040E1F700C074
:1002F0000000809197024FDFFE01EA56FD4F80918A
:10030000970280832196C430D1053CF3DF91CF91D1
:100310000895CF93DF9384E090E075D1D82FC091FA
:1003200096028C135CC085E090E06DD190919702AD
:10033000891355C086E090E066D1909198028913A8
:100340004EC087E090E05FD190919902891347C039
:1003500080E092E064DF2FEF39E688E12150304001
:100360008040E1F700C000008FEF8AB991E09BB9AF
:100370008093010183E0809302019FEF23ED30E33E
:10038000915020403040E1F700C0000081E0CADE1B
:100390008FE092E044DF80ECC5DE87E192E03FDF52
:1003A00091DF8093970280939702833209F043C0D4
:1003B0008FEF8AB981E08BB9109201018FEF9BE733
:1003C00022E9815090402040E1F700C000001092E7
:1003D000020181E0A7DE8FE192E021DF2CC0DC1377
:1003E00015C085E090E00FD19091970289130EC05F
:1003F00086E090E008D190919802891307C087E0C9
:1004000090E001D1909199028917A9F086E292E0DB
:1004100006DF8DB19FEF9DB98EB182608EB93FEF3F
:1004200083ED20E3315080402040E1F700C0000020
:100430009AB982E08BB9DF91CF910895CF93DF9382
:1004400084E090E0E0D0D82FC09196028C1341C098
:1004500085E090E0D8D09091970289133AC086E069
:1004600090E0D1D090919802891333C087E090E05A
:10047000CAD09091990289132CC081E053DE87E3A2
:1004800092E0CDDE80EC4EDE23DF6091960284E0C8
:1004900090E0C1D06091970285E090E0BCD060917F
:1004A000980286E090E0B7D06091990287E090E0F2
:1004B000B2D081E037DE85E492E0B1DE2FEF8FE04D
:1004C00097E2215080409040E1F700C000002ED01C
:1004D0002AC0DC1315C085E090E095D0909197027A
:1004E00089130EC086E090E08ED090919802891317
:1004F00007C087E090E087D090919902891799F022
:1005000081E010DE84E592E08ADE2FEF8FE097E253
:10051000215080409040E1F700C0000007D08FEFED
:100520008AB982E08BB9DF91CF91089581E0FADD3D
:100530008EE592E074DE80ECF5DD8AE692E06FDE17
:100540002FEF83ED90E3215080409040E1F700C011
:100550000000B8DE809397028A3261F581E0E2DD27
:1005600087E792E05CDE80ECDDDD2FEF89E698E145
:10057000215080409040E1F700C00000A9DE2FEF3D
:1005800089E698E1215080409040E1F700C00000EA
:1005900081E0C8DD81E892E042DE2FEF89E698E154
:1005A000215080409040E1F700C0000081E0BADDBA
:1005B000B0CE089583E28093970281E0B3DD87E7B0
:1005C00092E02DDE80ECAEDD83DE38CF08958FEF34
:1005D00081B98AB181708AB908958FEF81B980EFAE
:1005E00087B9F5DF11DE8DE892E019DE2FEF83ED9C
:1005F00090E3215080409040E1F700C0000096DF7A
:1006000080E090E00895F999FECF92BD81BDF89AFF
:10061000992780B50895262FF999FECF1FBA92BD6C
:1006200081BD20BD0FB6F894FA9AF99A0FBE0196D3
:060630000895F894FFCFCD
:10063600414343455353204752414E54454400508D
:1006460072657373202300746F206C6F636B004CAC
:100656004F434B4544004143434553532044454E85
:1006660049454421212100454E544552204E4557C7
:100676002050494E0050415353574F524420534146
:100686005645440054525920414741494E004F5067
:10069600454E20444F4F522D2A004348414E474570
:1006A6002050494E2D2300454E5445522050494E68
:1006B60000434845434B494E472E2E2E0057454C86
:0606C600434F4D4500000A
:00000001FF
