S010000047534D5F546573742E737265632E
S113000071C0000086C0000084C0000082C00000EF
S113001080C000007EC000007CC000007AC00000E8
S113002078C0000076C0000074C0000072C00000F8
S113003070C000006EC000006CC000006AC0000008
S113004068C0000066C0000064C0000062C0000018
S113005060C000005EC000005CC000005AC0000028
S113006058C0000056C0000054C0000052C0000038
S113007050C000004EC000004CC000004AC0000048
S113008048C0000046C0000044C0000042C0000058
S113009040C000003EC000003CC000003AC0000068
S11300A038C0000036C0000034C0000032C0000078
S11300B030C000002EC000002CC000002AC0000088
S11300C028C0000026C0000024C0000022C0000098
S11300D020C000001EC000001CC000001AC00000A8
S11300E018C0000011241FBECFEFD1E2DEBFCDBF88
S11300F000E00CBF12E0A0E0B2E0E4EFF1E000E0C9
S11301000BBF02C007900D92AC32B107D9F767D08C
S11301106FC076CFE7E0F1E080818360808308954B
S11301209091C00095FFFCCF8093C6000895109273
S1130130C50087E68093C40088E98093C10086E007
S11301408093C2000895EF92FF920F931F93CF9371
S1130150DF937C01FC0101900020E9F731978F01C6
S1130160081B190BC0E0D0E006C0F701EC0FFD1F1F
S11301708081D6DF2196C017D107BCF3DF91CF91E0
S11301801F910F91FF90EF90089580E092E0DBDFE4
S113019082E2C6DF8DE0C4DF8AE0C2DF2FEF83EDA9
S11301A090E3215080409040E1F700C000008DE0D2
S11301B092E0C9DF8DE0B4DF8AE0B2DF2FEF83ED98
S11301C090E3215080409040E1F700C00000089582
S11301D0E8E0F1E0808182608083D7CF08959ADFE0
S11301E0E8E0F1E0808181608083A1DFF1DFFFCF6F
S10701F0F894FFCFAD
S11301F42B393437313837393937393400416C6560
S113020472743A20536F6D65626F647920747279E5
S10F0214696E6720746F206F70656E00C7
S9030000FC
