:020000040000FA
:100000000C9463000C948B000C948B000C94EF0305
:100010000C94EF030C94EF030C948B000C948B0066
:100020000C948B000C948B000C948B000C948B0024
:100030000C948B000C948B000C948B000C948B0014
:100040000C94A5030C948B000C9473030C944D0337
:100050000C948B000C948B000C948B000C948B00F4
:100060000C948B000C948B000000000024002700EF
:100070002A0000000008000201000003040700003D
:1000800000000000000000000000230026002900FE
:1000900000000000250028002B00040404040404D0
:1000A0000404020202020202030303030303010227
:1000B00004081020408001020408102001020408F6
:1000C00010206704AE0611241FBECFEFD8E0DEBFBC
:1000D000CDBF11E0A0E0B1E0EAE0FEE002C0059093
:1000E0000D92A63BB107D9F722E0A6EBB1E001C023
:1000F0001D92AF3BB207E1F710E0C2E6D0E004C0CA
:100100002197FE010E94F206C136D107C9F70E946D
:1001100012050C94F8060C940000AF92BF92CF9297
:10012000DF92EF92FF920F931F93CF93DF936C01B7
:100130007B018B01040F151FEB015E01AE18BF0898
:10014000C017D10759F06991D601ED91FC9101904A
:10015000F081E02DC6010995892B79F7C501DF9162
:10016000CF911F910F91FF90EF90DF90CF90BF90B4
:10017000AF900895FC01538D448D252F30E0842FDE
:1001800090E0821B930B541710F0CF9608950197BF
:100190000895FC01918D828D981761F0A28DAE0FAC
:1001A000BF2FB11D5D968C91928D9F5F9F73928F33
:1001B00090E008958FEF9FEF0895FC01918D828D5F
:1001C000981731F0828DE80FF11D858D90E008952C
:1001D0008FEF9FEF0895FC01918D228D892F90E084
:1001E000805C9F4F821B91098F739927089583E04C
:1001F00092E00E94EB0021E0892B09F420E0822F9D
:10020000089580E090E0892B29F00E94F700811189
:100210000C9400000895FC01A48DA80FB92FB11D06
:10022000A35ABF4F2C91848D90E001968F7399272C
:10023000848FA689B7892C93A089B1898C9183700A
:1002400080648C93938D848D981306C00288F38903
:10025000E02D80818F7D80830895EF92FF920F9330
:100260001F93CF93DF93EC0181E0888F9B8D8C8D62
:1002700098131AC0E889F989808185FF15C09FB756
:10028000F894EE89FF896083E889F9898081837019
:10029000806480839FBF81E090E0DF91CF911F91C8
:1002A0000F91FF90EF900895F62E0B8D10E00F5FE9
:1002B0001F4F0F731127E02E8C8D8E110CC00FB6BF
:1002C00007FCFACFE889F989808185FFF5CFCE0157
:1002D0000E940B01F1CFEB8DEC0FFD2FF11DE35AC6
:1002E000FF4FF0829FB7F8940B8FEA89FB898081DA
:1002F0008062CFCFCF93DF93EC01888D8823B9F054
:10030000AA89BB89E889F9898C9185FD03C0808120
:1003100086FD0DC00FB607FCF7CF8C9185FFF2CF9D
:10032000808185FFEDCFCE010E940B01E9CFDF91E7
:10033000CF910895833081F028F4813099F0823094
:10034000A9F008958730A9F08830C9F08430B1F45D
:10035000809180008F7D03C0809180008F77809393
:100360008000089584B58F7784BD089584B58F7D0E
:10037000FBCF8091B0008F778093B000089580917B
:10038000B0008F7DF9CF1F93CF93DF93282F30E0FC
:10039000F901EE58FF4F8491F901E255FF4FD491D6
:1003A000F901E656FF4FC491CC23A9F0162F811115
:1003B0000E949A01EC2FF0E0EE0FFF1FE057FF4F75
:1003C000A591B4918FB7F894EC91111108C0D09514
:1003D000DE23DC938FBFDF91CF911F910895DE2B39
:1003E000F8CFCF93DF9390E0FC01E255FF4F2491CB
:1003F00086569F4FFC0184918823D1F090E0880FAE
:10040000991FFC01E859FF4FA591B491FC01E057F9
:10041000FF4FC591D49161110EC09FB7F8948C9194
:10042000E22FE0958E238C932881E223E8839FBFFF
:10043000DF91CF9108958FB7F894EC91E22BEC9374
:100440008FBFF6CF3FB7F8948091FB019091FC01EC
:10045000A091FD01B091FE0126B5A89B05C02F3FDC
:1004600019F00196A11DB11D3FBFBA2FA92F982FDA
:100470008827BC01CD01620F711D811D911D42E0D5
:10048000660F771F881F991F4A95D1F708958F929D
:100490009F92AF92BF92CF92DF92EF92FF924B0169
:1004A0005C010E9422026B017C010E9422026C19F5
:1004B0007D098E099F09683E734081059105A8F367
:1004C00021E0821A9108A108B10888EEC80E83E0E5
:1004D000D81EE11CF11C81149104A104B10429F778
:1004E000FF90EF90DF90CF90BF90AF909F908F9054
:1004F000089520910102309102022817390771F402
:100500009091FF0180910002981741F0E091FF0166
:10051000F0E0EA54FE4F808190E008958FEF9FEF66
:1005200008950895EF92FF920F931F93CF93DF9357
:10053000DC015C96ED90FC905D97E114F10479F498
:1005400081E090E013969C938E93129790E080E068
:10055000DF91CF911F910F91FF90EF9008955196E9
:10056000ED91FC91529750968C915097982F9095C1
:100570000FB75E962C915E97122F127021FD609539
:10058000F8942081112319F1282B2083E70121976A
:10059000F1F728E0462F50E0308160FF1AC0382B79
:1005A0003083E7012197F1F7BA01759567952150DE
:1005B00089F7112381F08081892380830FBF5C96A6
:1005C0008D919C910197F1F781E090E0C1CF2923B3
:1005D000DCCF3923E5CF9081892BEFCF2091010229
:1005E000309102022817390771F48091000220919E
:1005F000FF0190E0805C9F4F821B910960E470E0F6
:100600000E94CA06089590E080E0089520910102BA
:100610003091020228173907B9F49091FF018091B7
:100620000002981789F0E091FF01F0E0EA54FE4FD4
:1006300080812091FF0130E02F5F3F4F2F733327E0
:100640002093FF0190E008958FEF9FEF089590E0D1
:1006500080E00895FB0101900020E9F73197AF0198
:10066000461B570BDC01ED91FC910280F381E02DDC
:1006700009940F931F93CF93DF93EC010E942A03F9
:100680008C0164E271E0CE010E942A03800F911F69
:10069000DF91CF911F910F9108951F920F920FB686
:1006A0000F9211242F933F934F935F936F937F93F8
:1006B0008F939F93AF93BF93EF93FF9383E092E069
:1006C0000E940B01FF91EF91BF91AF919F918F918C
:1006D0007F916F915F914F913F912F910F900FBE3E
:1006E0000F901F9018951F920F920FB60F92112422
:1006F0002F938F939F93EF93FF93E0911302F091C9
:1007000014028081E0911902F0911A0282FD1BC04F
:10071000908180911C028F5F8F7320911D02821740
:1007200041F0E0911C02F0E0ED5FFD4F958F80936A
:100730001C02FF91EF919F918F912F910F900FBE0F
:100740000F901F9018958081F4CF1F920F920FB6D3
:100750000F9211242F933F938F939F93AF93BF9347
:100760008091F7019091F801A091F901B091FA01FF
:100770003091F60123E0230F2D3758F50196A11D86
:10078000B11D2093F6018093F7019093F801A09397
:10079000F901B093FA018091FB019091FC01A091C5
:1007A000FD01B091FE010196A11DB11D8093FB01D9
:1007B0009093FC01A093FD01B093FE01BF91AF9116
:1007C0009F918F913F912F910F900FBE0F901F908F
:1007D000189526E8230F0296A11DB11DD2CF1F92B6
:1007E0000F920FB60F9211242F933F934F935F9365
:1007F0006F937F938F939F93AF93BF93EF93FF93E9
:10080000E0910102F0910202309749F0A685B78588
:100810008585968D91FF14C09C918923A1F4FF9149
:10082000EF91BF91AF919F918F917F916F915F9168
:100830004F913F912F910F900FBE0F901F901895E1
:100840009C91892361F7A389B4899C9185898095BE
:1008500089238C93868997890197F1F7608D718D33
:10086000A685B785558538E020E0CB010197F1F7E3
:10087000822F90E095958795282F4C91452309F07C
:100880002068315091F7868D81FD2095809100027E
:1008900090E001968F7399273091FF01381799F0F6
:1008A000A0910002B0E0AA54BE4F2C9380930002A6
:1008B000828D938D0197F1F7A389B4898C919589E5
:1008C000892B8C93ACCF868D8160868FF1CF10926F
:1008D00006021092050288EE93E0A0E0B0E080935B
:1008E000070290930802A0930902B0930A0224E041
:1008F00031E0309304022093030225EC30E0309382
:10090000100220930F0224EC30E030931202209367
:10091000110220EC30E0309314022093130221ECFA
:1009200030E0309316022093150222EC30E0309331
:1009300018022093170226EC30E030931A0220931D
:10094000190210921C0210921D0210921E021092A7
:100950001F021092A3021092A2028093A40290930D
:10096000A502A093A602B093A70286E191E090931E
:10097000A1028093A0021092B7021092B6021092C8
:10098000B9021092B8021092BB021092BA021092F1
:10099000BD021092BC026091BE026E7F6D7F6093BB
:1009A000BE026695617081E0682785E00E94C30100
:1009B00061E085E00E94F101E3EBF0E0E491E09377
:1009C000B002EFE9F0E0E491F0E0EE0FFF1FE05736
:1009D000FF4F859194919093B2028093B10260E0B1
:1009E00089E00E94F1018091BE0281FD04C061E0B6
:1009F00089E00E94C30189E08093AC02E7EBF0E05C
:100A0000E491E093AD02E3EAF0E0E491F0E0EE0F70
:100A1000FF1FEA57FF4F859194919093AF02809307
:100A2000AE020895789484B5826084BD84B58160F7
:100A300084BD85B5826085BD85B5816085BD8091A9
:100A40006E00816080936E00109281008091810021
:100A50008260809381008091810081608093810019
:100A6000809180008160809380008091B1008460DB
:100A70008093B1008091B00081608093B00080913C
:100A80007A00846080937A0080917A0082608093FB
:100A90007A0080917A00816080937A0080917A0058
:100AA000806880937A001092C100E0911302F09167
:100AB000140282E08083E0910F02F0911002108214
:100AC000E0911102F09112028FEC808310921B02D0
:100AD000E0911702F091180286E08083E091150200
:100AE000F0911602808180618083E0911502F0917F
:100AF0001602808188608083E0911502F0911602D1
:100B0000808180688083E0911502F09116028081D7
:100B10008F7D808360E08AE00E94F10161E087E0E0
:100B20000E94F10160E087E00E94C3011092BB02C5
:100B30001092BA021092B9021092B8021092B70243
:100B40001092B6028DE991E09093BD028093BC02B1
:100B50009091AC02963108F047C02DEB30E0309315
:100B6000B7022093B6022BE931E03093B90220930B
:100B7000B8022CE231E03093BB022093BA022091FC
:100B8000680084E0983048F031E09E3008F430E0AE
:100B900081E001C0880F3A95EAF7822B80936800C4
:100BA0002DE630E0983050F02BE630E09E3030F00B
:100BB0002CE630E0963110F030E020E03093B402C3
:100BC0002093B302292F30E0983008F0B7C081E0BD
:100BD00001C0880F9A95EAF78093B5028091BC0214
:100BE0009091BD020197F1F78091BA029091BB02FA
:100BF000892B49F1E0910102F091020282E0E03A92
:100C0000F80709F1309739F0A389B4899C91858957
:100C1000809589238C938091BE028E7F8093BE0243
:100C2000109200021092FF0180EA92E0909302027B
:100C300080930102E091B302F091B402808190911F
:100C4000B502892B808368EE73E080E090E00E941B
:100C5000470267E271E083E092E00E94390360E0BE
:100C600087E00E94C301ECE7F0E08491E8EBF0E05C
:100C7000D491E4EAF0E0C491CC2309F46CC0811172
:100C80000E949A01EC2FF0E0EE0FFF1FEA57FF4F92
:100C9000A591B491EC91ED2309F45DC061E087E08A
:100CA0000E94C3016DE371E083E092E00E9439038A
:100CB00066E571E080EA92E00E94390368EE73E035
:100CC00080E090E00E94470260E671E080EA92E0F6
:100CD0000E94390368EE73E080E090E00E944702D2
:100CE00068E771E080EA92E00E94390364E670E010
:100CF00080E090E00E9447026AE180EA92E00E9470
:100D0000920264E271E080EA92E00E942A0368EEB7
:100D100073E080E090E00E94470268E971E083E0C0
:100D200092E00E943903C0E0D0E02097F1F30E94E6
:100D3000F7008823D1F30E940000F7CF9E3040F4E3
:100D40002850310981E001C0880F2A95EAF744CF85
:100D50002E503109F7CF65EA71E0E1CF86E191E0ED
:100D60009093A1028093A0028091010290910202CF
:100D7000805A924071F4E091B302F091B4029081F4
:100D80008091B5028095892380831092020210928F
:100D90000102089597FB072E16F4009407D077FD03
:100DA00009D00E94DE0607FC05D03EF4909581959F
:100DB0009F4F0895709561957F4F0895AA1BBB1BA7
:100DC00051E107C0AA1FBB1FA617B70710F0A61B4B
:100DD000B70B881F991F5A95A9F780959095BC016C
:100DE000CD010895EE0FFF1F0590F491E02D0994B9
:100DF00010E0C2E6D0E004C0FE010E94F206219697
:100E0000C336D107C9F7F894FFCF000000002D01C9
:100E10008D00BA007A01EB00C900DD00000000007F
:100E200092028D0027039102EE02060379020D0A59
:100E300000507265706172696E6720746F2073650F
:100E40006E6420534D530053656E64696E67204D88
:100E500065737361676520446574656374656400D8
:100E600041542B434D47463D310041542B434D47A0
:100E7000533D222B3934373032333433383838222B
:100E80000D00536F6D656F6E6520747279696E67C2
:100E900020746F206F70656E2074686520646F6FBA
:100EA00072004D6573736167652073656E74004DE4
:100EB0006573736167652072656365697665640053
:107E0000112484B714BE81FFF0D085E080938100F7
:107E100082E08093C00088E18093C10086E0809377
:107E2000C20080E18093C4008EE0C9D0259A86E02C
:107E300020E33CEF91E0309385002093840096BBD3
:107E4000B09BFECF1D9AA8958150A9F7CC24DD24C4
:107E500088248394B5E0AB2EA1E19A2EF3E0BF2EE7
:107E6000A2D0813461F49FD0082FAFD0023811F036
:107E7000013811F484E001C083E08DD089C08234E0
:107E800011F484E103C0853419F485E0A6D080C0E4
:107E9000853579F488D0E82EFF2485D0082F10E0AE
:107EA000102F00270E291F29000F111F8ED06801E7
:107EB0006FC0863521F484E090D080E0DECF843638
:107EC00009F040C070D06FD0082F6DD080E0C81688
:107ED00080E7D80618F4F601B7BEE895C0E0D1E017
:107EE00062D089930C17E1F7F0E0CF16F0E7DF06D8
:107EF00018F0F601B7BEE89568D007B600FCFDCFD4
:107F0000A601A0E0B1E02C9130E011968C91119780
:107F100090E0982F8827822B932B1296FA010C0160
:107F200087BEE89511244E5F5F4FF1E0A038BF0790
:107F300051F7F601A7BEE89507B600FCFDCF97BE46
:107F4000E89526C08437B1F42ED02DD0F82E2BD052
:107F50003CD0F601EF2C8F010F5F1F4F84911BD097
:107F6000EA94F801C1F70894C11CD11CFA94CF0C13
:107F7000D11C0EC0853739F428D08EE10CD085E9AC
:107F80000AD08FE07ACF813511F488E018D01DD067
:107F900080E101D065CF982F8091C00085FFFCCF94
:107FA0009093C60008958091C00087FFFCCF809118
:107FB000C00084FD01C0A8958091C6000895E0E648
:107FC000F0E098E1908380830895EDDF803219F02E
:107FD00088E0F5DFFFCF84E1DECF1F93182FE3DFCA
:107FE0001150E9F7F2DF1F91089580E0E8DFEE27F6
:047FF000FF270994CA
:027FFE00040479
:00000001FF
